:020000040000FA
:020000000528D1
:040002000034003492
:02000800482886
:06000A000030A400A50077
:10001000A600A7000430A3000030AB00831603172E
:1000200003308800831603178901831603130330F6
:1000300085000730860095009600870188018312AD
:1000400003138601870188018316031300308100A2
:1000500088308B008312031344309F0083160313F0
:1000600080309F009F149F18332883120313403061
:100070009F00831203131E0883120313AC00831620
:1000800003131E0883120313AD00B720A5204528D3
:10009000A000030EA1000B184E28A02852207F209C
:1000A0000B10A028A201A20A303086000000061C16
:1000B0007828A20A861C7828A20A061D7828A20A97
:1000C00028308600061C7828A20A861C7828A20AF6
:1000D000061D7828A20A18308600061C7828A20A75
:1000E000861C7828A20A061D7828A20AA201080008
:1000F000061C7828861C7A28061D7C2808000430F7
:10010000230203199D200330230203199A20023091
:100110002302031997200130230203199420A30B13
:1001200008000430A30008002208A40008002208E8
:10013000A50008002208A60008002208A700080061
:10014000210E8300A00E200E0900831203132B083A
:10015000013C031CAE28031DB428B12806178613E2
:10016000B62806138617B6280613861308008312CE
:1001700003132408DF2088000715D2200711250863
:10018000DF2088008715D22087112608DF2088000D
:100190000716D22007122708DF2088008716D220F2
:1001A00087120800FF30A8000130A9000330AA0020
:1001B000AA0BD828A90BD628A80BD4280800820798
:1001C0003F3406345B344F3466346D347D34073449
:0601D0007F346734403467
:02400E00F12F90
:00000001FF
